:020000040000FA
:100000001805002065010000730100007501000063
:1000100000000000000000000000000000000000E0
:100020000000000000000000000000007701000058
:10003000000000000000000079010000872400009B
:1000400091240000C92400004D1800008D18000004
:10005000C1130000F1230000E510000005130000AB
:10006000992600007D0800009D0500001D1000007D
:1000700039290000F3230000000000000000000008
:100080000000000000000000000000000000000070
:100090000000000000000000000000000000000060
:1000A0000000000000000000000000000000000050
:1000B0000000000000000000000000000000000040
:1000C00000F002F800F03EF80CA030C80838241800
:1000D0002D18A246671EAB4654465D46AC4201D180
:1000E00000F030F87E460F3E0FCCB6460126334274
:1000F00000D0FB1AA246AB4633431847DC2B000066
:10010000FC2B0000103A02D378C878C1FAD8520705
:1001100001D330C830C101D504680C6070470000BD
:100120000023002400250026103A01D378C1FBD813
:10013000520700D330C100D50B6070471FB51FBDFB
:1001400010B510BD00F0F7F91146FFF7F7FF02F008
:1001500055FC00F00FFA03B4FFF7F2FF03BC00F008
:1001600015FA0000094880F30888094880470948C3
:100170000047FEE7FEE7FEE7FEE7FEE7FEE70000DA
:1001800005480649064A074B70470000180500203D
:1001900089240000C1000000C802002018050020CA
:1001A000C8040020C804002001E004C0091F04297D
:1001B000FBD28B0701D50280801CC90700D00270DA
:1001C000704700290BD0C30702D00270401C491EA3
:1001D000022904D3830702D50280801C891EE3E72D
:1001E0000022EEE70022DFE7002203098B422CD336
:1001F000030A8B4211D300239C464EE003460B4377
:100200003CD4002243088B4231D303098B421CD3D8
:10021000030A8B4201D394463FE0C3098B4201D3CA
:10022000CB01C01A524183098B4201D38B01C01A02
:10023000524143098B4201D34B01C01A5241030979
:100240008B4201D30B01C01A5241C3088B4201D328
:10025000CB00C01A524183088B4201D38B00C01AD5
:10026000524143088B4201D34B00C01A5241411AFC
:1002700000D201465241104670475DE0CA0F00D0DF
:100280004942031000D34042534000229C460309D8
:100290008B422DD3030A8B4212D3FC22890112BA5E
:1002A000030A8B420CD3890192118B4208D3890136
:1002B00092118B4204D389013AD0921100E089094E
:1002C000C3098B4201D3CB01C01A524183098B422F
:1002D00001D38B01C01A524143098B4201D34B0118
:1002E000C01A524103098B4201D30B01C01A52417B
:1002F000C3088B4201D3CB00C01A524183088B4202
:1003000001D38B00C01A5241D9D243088B4201D38A
:100310004B00C01A5241411A00D201466346524175
:100320005B10104601D34042002B00D54942704774
:1003300063465B1000D3404201B50020C046C04672
:1003400002BD704770477047F0B5FF252D04C60900
:10035000C209FF2704462E400137CB093E434840DF
:100360002A402B400746002A6BD0002B69D0AA42B6
:1003700067D0AB4265D0002800DA32460125ED0592
:1003800029432C4309022002090AD21A4B0C7F246C
:10039000E31A434C000A7C44E35C7D2424041219D4
:1003A00014145B00A218884201D3521C00E04000E4
:1003B00049420C465C4324115C43DB016415E3189D
:1003C000040A5C43C502200D0C4644436419250A07
:1003D0005D432303EC0C0D46654300030019EB1845
:1003E0004C42A34201D35B18401CD4052018002BBB
:1003F00007D05B00C91804D3401C002901D1400874
:1004000040003F2189048A4209D3002A08DC1106F2
:10041000090F04D0032149074018C00FC007F0BDE1
:1004200001224100120689187F2252069142F6D21B
:1004300005214907C84201D59010F0BDFF20C00535
:10044000F0BD002F00DA32461648AA4207D2AB426E
:1004500005D21902090E17D0F80FC007F0BDFF250D
:1004600063002D06AB42F9D84900A942F6D8AB4249
:1004700001D1A942F2D0A94201D1002101E06100DD
:100480004908D0050843F0BD1102090EFBD0FF203A
:100490000243D005F0BD0A460146104654E700006D
:1004A000FE2800000000C07F0102C21504D0012315
:1004B000DB071943002A0ADB9E239A1A02D4084656
:1004C000D0407047FF2241001206914201D900201E
:1004D0007047C017C04370471F22030C02D10F2280
:1004E00000041CD0030E01D10002083A030F01D111
:1004F0000001121F830F01D18000921E002801DB32
:100500004000521ED2055118021251181922904073
:1005100004D3491C002801D1490849000846704706
:10052000C10FC90700D04042012292071143D3E70F
:1005300001218907D0E7754600F024F8AE46050092
:1005400069465346C008C000854618B020B5FFF77D
:1005500017FE60BC00274908B6460026C0C5C0C5C6
:10056000C0C5C0C5C0C5C0C5C0C5C0C5403D4900A7
:100570008D46704710B50446C046C0462046FFF77A
:10058000EAFD10BD004870476802002001491820AC
:10059000ABBEFEE7260002007047000000B50B4826
:1005A000C16A03221143C16209498889401C8881BC
:1005B00000F03AFD0748817F012905D1017F491CE0
:1005C0000177417F491C417700BD00004004014094
:1005D0005001002090010020F8B50C46054601218D
:1005E000080201F007FF2088042802D9001F80B20A
:1005F00000E000201A49194B8B620202C805826193
:1006000000228A626288AA662679A28AB6023243EA
:10061000A67D278936033F013E433243A67C36023E
:10062000324392B26A65A689628936013243E6890D
:10063000278A36023F033E4332432A65094A258C06
:100640001563E58B5563A58B95638B624269638C5B
:100650009B011A43426100208862F8BD837A000042
:100660008000004000040140002141808180C18061
:10067000018141818181C181018241828182C18266
:100680008183C183018441847047000000B589B033
:100690006846FFF7E9FF00206B46988058820821E2
:1006A00059819881D8811882188101229A82D88232
:1006B00019805A8069460848FFF78EFF06480749A7
:1006C0004030016006494160FF21C1624169C214A6
:1006D0001143416109B000BD000401401042000017
:1006E0005309000010B50B48002101808180018171
:1006F0008181018281820749074A80310A63074A62
:100700000A621C224A62064A0A63012101F0F8FDCE
:1007100010BD000000070140ADDE00001C1C000001
:10072000FECA000070B5114A0F499162D1054B69AC
:100730000F4C23404B61C3260E4D0F4CB6000300F7
:1007400002F0FBF80706090C0F0F0C0906004861C0
:100750000020906270BD48692843F8E7486920434B
:10076000F5E748693043F2E7837A000080000040F3
:10077000F3F800000C0400000C050000F0B520495F
:100780001E4A0A63204A1F4B9362D20553691F4CCD
:100790002340536104251E4C1C260C27030002F045
:1007A000CCF8070C160812231C050C000C624E62D4
:1007B00010E01748103012E05061164808631248E4
:1007C00000218162F0BD144808624D6210E01348B8
:1007D00008624D6250692043EEE71048083808620D
:1007E0004F6250690E4B06E00B48183808624E62A3
:1007F0005069C3239B001843DEE70000ADDE000014
:1008000080070140837A000080000040F3F8000078
:100810000C040000FECA00001C0C00000C1C0000B0
:100820000C05000010B50548002101808180018180
:1008300081810182818201F063FD10BD00070140CA
:1008400010B59320800001F0A3FD0B4C2061FF2028
:10085000F13001F09DFD6061FF20F93001F098FD5D
:10086000A06120696169884204D02069A169884239
:1008700000D0FEE710BD00006400002038B5144928
:1008800000204A68920721D502224A6000236A4666
:10089000137008E04A69920701D5401CC0B26C464B
:1008A0002278521C22706A461278042AF2D3022857
:1008B0000CD9084883710848094903700748012288
:1008C0000370088F10430887FFF7ACFF38BD0000A6
:1008D00000020140A00000201400002015000020AC
:1008E0005001002070B504460121082001F0A4FD4C
:1008F0006069616C40020143A06CA2690002520071
:10090000104301432B480160216862680901D2004D
:100910001143A26811438160E169226AC901920111
:100920001143626A52011143A26A12011143E26C3F
:10093000D2001143226D92001143626D52001143A7
:10094000A26D1143C160616BA26BC9019201114399
:10095000E26B52011143226C12011143626ED2000C
:100960001143A26E92001143E26E52001143226FB6
:1009700011430161114A1049916243055969104DB3
:100980002940E56A2D032943E568ED022943E56D19
:100990002D0229432569ED012943256B246E2D0184
:1009A0002943A40021435961002191620321416040
:1009B00070BD000000020140837A0000800000400A
:1009C0004380000070B5264CA069401CA061607D8A
:1009D00000283DD1607D401C60750120A071214D33
:1009E00000262148AE750078E875FFF7C7FE1F4B5B
:1009F0001E6095211D48C94340380180962282809F
:100A00000181828101828282FF211960012101F02E
:100A100077FC207916490128A87D1AD0124A18328D
:100A2000125C4A70104A0C32105CA87503202075C5
:100A30007D20C000486088600A22CA6008492031D1
:100A40000E73266366632662E0610A486062A662EE
:100A500070BD054A1232125C4A70034A921DE3E7E8
:100A6000A000002050010020350000204007014078
:100A70008000002070170000F8B5424E306A401C1C
:100A80003062B06A401CB06234462034207B3E4F56
:100A9000012841D03069401C30613C484069FF2149
:100AA00001310840F060F068000A3870384600F004
:100AB000B7F83069796888423ED3354D3549A87D0D
:100AC000085CE875FFF75AFE30790128A87D34D01C
:100AD00030491831095C79702E490C31085CA875D1
:100AE000306AF061002131622A4F7F1E3878052874
:100AF00000D93970F3693A78900080190364F3697A
:100B00004366521C3A70E87D234B082501220128D8
:100B10001AD006282AD02CE0306B401C3063306B92
:100B2000716B884208D3002030632073706B306192
:100B30007868716B40187860F8BD16491231095C0D
:100B400079701449891DC9E7D8686840D860B06ACF
:100B50007062B1620B4880300275B06B7D231B015F
:100B6000984206D2B06B401CB06302E0D86868407F
:100B7000D86030697063706B800870632273316372
:100B80003161F8BDA000002080000020000201407B
:100B900050010020350000204008014000210122C2
:100BA00006C001608160C160016141618161C16114
:100BB000016241628162C162016341638163C16319
:100BC000016441648164C164016541658165C165F9
:100BD0000166416642608166704700B59DB0684617
:100BE000FFF7DCFF0121480301F004FC0121880329
:100BF00001F000FC03211891052000900421012040
:100C000017910021019015900B91022211910990EA
:100C100006900C926846FFF765FE1DB000BD00000F
:100C200010490A694B699A4203D00A6989698A4264
:100C300016D101780029417802D0002909D101E0BC
:100C4000002906D041688268914209D24168491C56
:100C500005E04168C268914202D94168491E41607D
:100C6000704700006400002010B5012149020348CC
:100C700000F0E6FA0249087010BD000000080140CB
:100C80001800002010B501214902114800F0D8FADF
:100C90000022104900280ED00A720878002809D1D5
:100CA0000A70487A401CC0B24872052802D94A72BC
:100CB0000120087010BD4A7208780128FAD1087A1C
:100CC000401CC0B208720528F4D90A720A7010BD1F
:100CD000000801401800002030B5039D0E4C012D86
:100CE00002D02180208830BD884200D80846218863
:100CF000814202D9C5188D420BD8814202D2851A91
:100D00008D4206DB814201D9C81A02E0814200D23D
:100D100088182080E6E7000016000020F8B50C4691
:100D20000860896801260A460F3A904209D2607E1F
:100D30000021304360766161032801D16676217617
:100D4000F8BD8842FCD9657E02273D436576401A8E
:100D5000FFF7EEFBE16901F02BFFFFF7A5FB6061F8
:100D60002169884201D8014600E06161E068814262
:100D700000D26061032DE3D167762676F8BD10B509
:100D8000C269816904688A1A41680369514361181C
:100D9000C9138B4202DB43698B4201DD036201E030
:100DA0000B460162C91A83685343C2684A43991AC1
:100DB0000919016010BD000010B5602001F0CAFDE6
:100DC0000A4A09489062D0050169C31319430161B9
:100DD000642001F04FFB1068054908431060054886
:100DE00001F03CFB10BD0000837A00008000004051
:100DF000FF010000FF0F0000F0B587B072B60024BD
:100E00002A494C614869CA1410434861009401940E
:100E100002942748039408601F20C862254D8D6105
:100E200068468482214803264038471522E0224B39
:100E30000494049A521C04929A42FAD3CA6A324326
:100E4000CA620022825E009BD21800920422825E57
:100E5000019BD21801920822825E029BD218029254
:100E60000C22825E039BD21803928D616B469A8A94
:100E7000521C9A826A46928ABA42D8D300210F48FD
:100E800001F03EFA009841120D4801830199491280
:100E90000186029949124186039949128186FFF71A
:100EA000F5FB00F039FE62B607B0F0BD400401402A
:100EB00010420000A55A0000FF0100000007014099
:100EC000500100200A481A21415E002901DA002160
:100ED00001E04904490C8183828B016A8918426AC6
:100EE000891A01628908416281620249C1637047BF
:100EF00050010020842E000070B504460121C80274
:100F000001F078FA01208007416861701849174A9A
:100F10008A62426923785B001A43426115488862FD
:100F2000FF216078C131144D0E1D012813D0022815
:100F30001AD1A07800280DD0012815D103202870DF
:100F4000084601F025FA00146880304601F020FAC6
:100F5000001408E002202870084601F019FA6880A1
:100F6000304601F015FAA88070BD0000837A0000B9
:100F700080000040FFFF00005C000020FF2800D33D
:100F8000FF20094902228A5E898842435012401894
:100F900000B2002801DA002002E0FF2800DDFF2077
:100FA00001218907C86270475C00002010B5032149
:100FB000FFF716F910BD08B56846FFF7F7FF0020E8
:100FC000694608706846FFF797FF1B20FFF7D6FFBA
:100FD00008BD00000C491820085E0C4A0C4B821812
:100FE000084620309A4202D30122827502E0807DB9
:100FF000002808D0074A00201070074A1070088F98
:10100000102210430887704750010020AC0D0000EB
:10101000591B0000140000201500002001490F207A
:1010200088607047800A014010B5174A1188174838
:10103000038BC91A4183918A00230904002901DA2C
:10104000C38103E01421515E0911C181118A090491
:1010500001D5038208E010211024415E145F0919B4
:10106000CC0F611849100182118B090401D543820C
:1010700010BD12211823415ED35EC918CA0F511842
:101080004910418210BD00000004014050010020C1
:1010900013490A694B699A4203D00A6989698A42ED
:1010A00011D1017801290FD04169491C4161816941
:1010B000002902D08169491E81614169026991421A
:1010C00001D30178017770478169491C81614169C9
:1010D000002902D04169491E41618169EEE70000A3
:1010E000640000200348C168090701D50821C160D8
:1010F000704700008008014070B5002301252A4692
:101100000C689A40144094422AD10C79002C04D0E7
:10111000012C11D0022C04D006E0046816462643A8
:1011200006604468944344604C79012C0BD0022C37
:1011300010D0002C0BD00DE0046894430460466886
:1011400014463443EFE706691446344301E004696A
:101150009443046184698E68012E05D094438461B0
:101160005B1C102BCBD370BD1443F8E7F0B5324FA6
:101170001601150214030B0001F0DFFB10090D131B
:10118000181E22282D33373D42484C52571D016A04
:10119000394089180EE0016A274AE13A1140711876
:1011A00008E0016A254A1140691803E0016A09054F
:1011B000090D61180162F0BD416A394089180EE0DD
:1011C000416A1D4AE13A1140711808E0416A1B4A20
:1011D0001140691803E0416A0905090D611841626F
:1011E000F0BD816A394089180EE0816A124AE13AFD
:1011F0001140711808E0816A104A1140691803E033
:10120000816A0905090D61188162F0BDC16A394022
:1012100089180EE0C16A084AE13A1140711808E0E5
:10122000C16A064A1140691803E0C16A0905090D3F
:101230006118C162F0BD0000F0FF0000FFF0000087
:101240000246926800200A4200D001207047002127
:1012500001600171417181607047002A01D0016312
:1012600070474163704700003EB56846FFF7EFFFE7
:10127000012469463F200C718002214D00902846D0
:10128000FFF73AFF03220A212846FFF76FFF0322E8
:101290000B212846FFF76AFF03220C212846FFF79F
:1012A00065FF03220D212846FFF760FF03220E2170
:1012B0002846FFF75BFF03220F212846FFF756FF62
:1012C00069460C71082000900D484030FFF714FF6C
:1012D000002069460871600200904C712846FFF7B3
:1012E0000BFF00F069FF69460C7128460094FFF778
:1012F00003FF012211462846FFF7AFFF3EBD000065
:10130000000801400121034809044160490041608F
:10131000704700000003014010B572B62548264909
:10132000886200F031F9012000040168C200114315
:101330000160302001F00EFB642001F01DFBFFF77F
:1013400093FF00F0CBFFFFF7A1F9FFF734FEFFF7A3
:1013500044FC01F0A3F900F0DFFBFFF771FA174836
:1013600001F088F801210A2000F040FF0A2000F077
:1013700031FF0021012000F039FF012000F02AFF99
:101380000221002000F032FF002000F023FF0221A4
:10139000084600F02BFF022000F01CFF002109206E
:1013A00000F024FF092000F015FF642001F0FAFA94
:1013B00062B610BD837A00008000004020A10700C3
:1013C00070470000FEB5524D29780126514800248F
:1013D00000290ED02978FF27F537012913D0297865
:1013E000022905D11021FFF72BFF01287ED0AC8107
:1013F000FEBD69460C711021009169464E71FFF7E0
:101400007BFE2E70FEBD10214248FFF719FF002819
:101410002FD02889002801D0288968812C81A889AB
:10142000B84202D2A889401CA881E8893A4A3B49BF
:10143000402705282AD9E8890F2827D26889052856
:1014400024D968890F2821D2EC816C81E888401C5E
:10145000E8806C80AC80E8881428D3D9EC80022026
:101460002870AC812C818A624868384348608C625D
:10147000FEBDA889002801D0A889E881AC8128890F
:10148000B842D2D22889401C2881CEE7E8880028BB
:1014900009D06888401C688068887D235B01984279
:1014A00001D9EC806C80A888401CA880A8887D2386
:1014B000DB009842DCD9AC8068780028D8D16E7007
:1014C0008A624868B84348608C62684604710120AB
:1014D0004002009068460F4D447169462846FFF768
:1014E0000BFE68460471A815009000E006E068460F
:1014F000467169462846FFF7FFFDFEBDA889401CDE
:10150000A881A889B842F8D9AC812E706C70FEBD54
:101510006400002040080140837A00008000004001
:10152000F8B5154C0120A076144E0A203061144FF6
:1015300000251448BD750078F875FFF7F3F82046CC
:101540008038007901280FD03577307FE0770D495A
:10155000B87D0C31085CB8756577E576257725622E
:10156000A577B5617561F8BD01203077307FE077F0
:101570000449B87D891DEDE720010020800000208E
:1015800050010020350000200F20024980024860F1
:1015900070470000000C014070B5049C1D4623619B
:1015A000E2606160A060081AFEF7C2FF06462846A6
:1015B000FEF7BEFF3146FEF7C7FEE0610020607611
:1015C0002076606170BD000030B50E4896210E4A4D
:1015D000012441610A4DA403083034C0084B0022A5
:1015E0008A3314380CC0426181611C304360416110
:1015F0000260FF23C26149330162083038C030BD48
:10160000DC050000200200208F02000070B53D4D77
:1016100000246C71AC71EC712C812C80EC6029463B
:1016200020390C702C617D20C00088600A22CA60BD
:101630004C7048602C756C75AC61E8612C62324E60
:101640006E62AC620B4640331C732C636C63AC63FC
:10165000EC632C6628646864A864E864286568659F
:10166000AE65EC656866A866E86628676867A8677F
:10167000E8670846A030046044608460C460046188
:101680000475C48204838476C476047744778477AF
:10169000C4770C7704628C614C610A614462846295
:1016A000C4623030047044808480C4808481C481EA
:1016B000048244828482154984750978C175048343
:1016C00044838483046244620146203184620C7343
:1016D000C4850486448684868C75048744870C48B8
:1016E0000476447644610B48046044600A480476FA
:1016F00044764461094804604460FFF765FF6C80EC
:1017000070BD0000A0000020701700003500002010
:10171000B0010020D0010020E801002008020020D4
:1017200010B5FFF77FF8084841790848002903D130
:10173000018F074A11400187008F002802D1054917
:101740000220087010BD0000A00000205001002001
:10175000F6FDFFFF1400002010B501F0B1F90249B9
:101760000220087010BD0000140000200248034948
:101770004078800008580047140000207C2C0000AE
:1017800001490420487070471400002010B5FEF78E
:10179000A9FF0848017F012905D1816A642903D284
:1017A000816A491C816210BD002181620177024873
:1017B000417010BD200100201400002001490120CB
:1017C000487070471400002010B503484079002885
:1017D00001D100F02FF810BDA000002010B5FFF7D8
:1017E0009FFE02490220487010BD00001400002036
:1017F00010B503484079002801D100F01BF810BD56
:10180000A000002001490520487070471400002006
:1018100010B501F055F905484079012804D1044874
:10182000002141700321017010BD0000A0000020C4
:101830001400002010B5FEF7F5FF034802210170E7
:101840000021417010BD00001400002010B50A4CAA
:10185000606980060FD50949002088710849012276
:101860000870084908700848018F11430187FEF786
:10187000D9FF2020606110BD80070140A00000203A
:1018800014000020150000205001002070470000C7
:10189000F8B50D4606460121102000F0CDFD30467A
:1018A0009749803001636A79297992001143AA7AB5
:1018B000EB7A12015B011A431143AA799201114399
:1018C000EA79D20111432A7B120211436A7B520248
:1018D0001143F1672988316369887163E98B31624B
:1018E000298C7162698CB162A98CF1622989316796
:1018F00029462031CB7A8A7A5B001A438B7CEC8AAA
:101900009B01E40123431A430B7B1B021A434B7BCD
:101910005B021A43CB7C9B031A432B8BDB031A43DA
:101920000262CB7B8A7B5B001A430B7D6C8B9B0135
:10193000E40123431A430B7C1B021A434B7C5B02DA
:101940001A434B7D9B031A43AB8BDB031A43426262
:101950002C464034A37822789B001A438B7FCF7F9C
:101960001B017F013B431A4363785B001A43E37812
:10197000DB001A432379DB011A43237B1B021A4342
:10198000E37A5B021A43A37B9B021A43637BDB026D
:101990001A43237C1B031A43E37B5B031A438262D3
:1019A000637AE2799B001A436379A7791B017F016F
:1019B0003B431A43237A5B001A43A37ADB001A43A2
:1019C0002379DB011A43637C1B021A43A37C5B026D
:1019D0001A43C2620B7E8A7D1B011A434B7E0F7F26
:1019E0005B01BF013B431A43CB7D1B021A438B7E35
:1019F0001B031A43CB7E497F5B031A4389030A43C7
:101A00007267E98C3165298D7165E18EB167E9896D
:101A1000B164298AF1641221695EB1631421695E9F
:101A2000F163227DE17C52001143627DA37D92002F
:101A3000DB001A431143E27D603512011143227E1F
:101A400052011143627E92011143A27ED2011143E1
:101A5000E27E12021143227F52021143627F920200
:101A60001143A27FD2021143E27F120311432A786D
:101A7000520311436A78920311430160EA78A9780E
:101A8000520011432A796B7912025B021A43114307
:101A9000AA7912031143EA79520311432A7A920375
:101AA00011438160697CAA7C090152011143EA7CDF
:101AB000920111432A7DD20111430161AA7A697A08
:101AC00052001143EA7A2B7B9200DB001A43114348
:101AD0006A7B12011143AA7B52011143EA7B9201F6
:101AE00011432A7CD20111438161297EC1610549DC
:101AF00031644160C160416103490163F8BD000088
:101B0000ADDE0000FFFF0000FECA000010B57A2124
:101B1000FEF766FB10BD000000B59FB06846FFF7FA
:101B2000F5FF00206B461871012159719971D88217
:101B3000188358831F4A10ABDA860C226B461A7240
:101B40005A721D4A1A806322D243DA83FF222D3251
:101B50001A844822DA841A8508ABD872987210ABBE
:101B60000B90D8721390187408AB9874D8741875C9
:101B700010AB197108AB1976587610ABD87418AB46
:101B8000587408AB987710AB1970987018AB9974AB
:101B900008ABD97710AB5970D87009480749016371
:101BA00008490163064869468038FFF771FE1FB097
:101BB00000BD00003F130000DC050000ADDE0000AA
:101BC00080070140FECA000010B52249204A0A637E
:101BD0001C220024030000F0B0FE0504080D1215BD
:101BE00018001D480862082002E01C480862042012
:101BF00048620AE00320800208624A6205E00A6245
:101C00000C20F5E7164808624C621648028B5342D6
:101C1000104A803A1380038B9380038B5B421381BD
:101C2000038B9381038B5B421382038B9382408BE4
:101C3000084A603A1080074A0B48403A10600B4847
:101C400008630B4804604169C2141143416110BD2F
:101C5000ADDE000080070140080800000404000019
:101C60000C1C000090010020FFFF0000FECA0000D5
:101C700040040140F8B51F4E1220305E1E49FF2778
:101C8000F53700251D4C884214D2E581A089B84261
:101C900002D2A089401C12E0A5811948857119481B
:101CA0002021057018480570308F08433087FEF7F3
:101CB000B9FD05E0A089002802D0A089401EA081BE
:101CC0001220305E114988420CD9A581E089B842C2
:101CD00002D2E089401C0AE0E581308F2021884350
:101CE0003087F8BDE0890028FBD0E089401EE08104
:101CF000F8BD000050010020271000000000002067
:101D0000A000002014000020150000200129000080
:101D1000F8B5374C0125A5770026E6779620208375
:101D2000208B4008608368460670324F4EE032498F
:101D3000C8686840C8606846007820702078FFF75F
:101D400043FF2677207F0028FCD001212B4800F09C
:101D5000D7FA207F0228FCD30021284800F0D0FACF
:101D600027480088398B401A6946097800B28900F3
:101D700009194860694608788000001941682148BF
:101D8000814203DD69460978022906D3694609784C
:101D9000890009194968814200DDE5776677607F2F
:101DA0000528FCD3E07F002802D1388F002809D015
:101DB0001548012106701548C9020670388F08437E
:101DC000388707E069460878401C08706846007844
:101DD0000528ACD372B6FEF759FCFFF79DFE084903
:101DE00040314869CA141043486162B6F8BD00002A
:101DF0009001002050010020000801400007014030
:101E00000004014088130000140000201500002089
:101E100070B5264C207D012846D12546803D686A54
:101E20000621FEF7E1F9206020684000606020682C
:101E30004008A060A0684008E0606068A168401A9F
:101E40002061A86B002605282DD9E682686EE86718
:101E50000020F522920081004919496E914202D971
:101E6000E18A491CE182E18A0029218B01D0491CC9
:101E700003E0002902D0218B491E2183401CC0B2FF
:101E80000628E8D3208B32280DD909480822018F73
:101E9000114301874687AE710648067006480670F2
:101EA000FEF7C0FC2683267570BD000020010020CF
:101EB000500100201400002015000020F8B5634CEC
:101EC000607F634D0027002842D1206A401C2062B9
:101ED00060484069FF21013108402646803EF0609D
:101EE000F068000A28702846FFF7D2F8287FE17FC3
:101EF00088422DD0206A6062606A6860304607615F
:101F0000287FE077A07F401CA077A07F052804D31E
:101F100001206077E0762777A7772762AF616F614E
:101F2000607F002814D14C4E4C48B17D405CF07568
:101F3000FEF7F8FB4548803800790128B07D0BD0CA
:101F400046491831095C697044490C31085CB07528
:101F5000607F012807D063E040491231095C697055
:101F60003E49891DF2E7E07E012859D1606A401E92
:101F70006062364E803E3069401C30613069616A73
:101F800088424DD3E7766777A776354805210170FB
:101F9000032030750120B0716420306631482E492D
:101FA0000776477647613048076047602F480776D5
:101FB000477647612E48076047608A7D2748805CE6
:101FC000C875FEF7DBFB2B4B1F6095212948C943E1
:101FD0004038018096228280018182810182828242
:101FE000FF211960012100F08BF930791A4A01288C
:101FF000907D24D019491831095C697017490C315A
:10200000085C9075E7762777B76130697063706B0D
:10201000800870630D4901206039087337633761A8
:10202000206A7D214901884208D96777A77627620F
:10203000A777AF616F610A4903200870F8BD0749AF
:102040001231095C69700549891DD9E7200100201A
:1020500080000020000201405001002035000020D7
:1020600015000020B0010020D0010020E801002070
:10207000080200204007014000B513484279144887
:102080001249008F002A02D0002818D001E0002851
:1020900002D000F021F800BD0E4AD079401CC0B239
:1020A000D071322805D30020D071C8680122504079
:1020B000C86006494031C8680822904302E0C868F9
:1020C00040084000C86000BDA0000020000801409A
:1020D0005001002018000020F0B53449C878401C99
:1020E000C0B2C870142852D900223148CA70008F7B
:1020F000082301281BD002281BD004281BD0082845
:102100001BD010281BD020281BD040281BD0802893
:102110001BD0C41FF93C08D0C41FFF3CFA3C16D0AA
:10212000DC01A04215D1162018E0122016E0022092
:1021300014E0042012E0062010E00B710FE00A20EA
:102140000CE00C200AE00E2008E0102006E014202D
:1021500004E00124E402A04201D1182008711348D0
:10216000144D80794C79401C124F40350126C0B285
:10217000002C0DD0012C0AD1FC683443FC60EC68C3
:102180001C43EC6088710A2801D38A714A71F0BD42
:10219000FC687440FC60EC685C40EC6088710B7912
:1021A0009842F4D38A714E71F0BD000018000020EF
:1021B000500100200008014005480449816241683F
:1021C000202211434160002181627047837A000020
:1021D00080000040C206D20E012191404009024A0F
:1021E000800080180160704700E100E08307FF2253
:1021F000DB0E9A408907090E994000280BDA000788
:10220000000F0838830808489B001818C3699343D7
:102210000B43C3617047830804489B001818036888
:1022200093430B430360704700ED00E000E400E0DF
:10223000F8B5234FB8790025224C012802D0258219
:102240006582F8BD204E1A20305E20498842208ADF
:1022500013DD7D21C900884202D2208A401C10E093
:10226000BD711B4805701B480570318F012040026D
:1022700001433187FEF7D6FA04E0002802D0208A15
:10228000401E20821A20305E13498842608A11DD88
:10229000C82802D2608A401C10E0BD710C480121A0
:1022A00005700C4849020570308F08433087FEF7EF
:1022B000B9FAF8BD0028FCD0608A401E6082F8BDE3
:1022C000A00000200000002050010020AF330000DB
:1022D00014000020150000204536000010B5012133
:1022E000480200F087F8054803498162C1050A6980
:1022F0000A610021816210BD837A000080000040E5
:10230000074A803002630129816A05D0054A1140DD
:10231000816205490163704740221143F8E70000DC
:10232000ADDE0000BFFF0000FECA000070B5144C17
:102330000029A0611FD0134A134D916AD26B9142BC
:1023400009D9AA612846E961FEF719FD286A0F49F3
:102350006061486011E0A2786169831A8B4201D9FB
:10236000881803E083188B4200D2881AC103606189
:102370002960286201E096206061A08A80B270BD69
:10238000180000205001002020020020D001002071
:10239000014689088900FF209130814202D3134809
:1023A000814207D99320800081421CD34B20C0007A
:1023B000814218D80120000400680123DB02184381
:1023C0005B01186059200006586018464160C268D9
:1023D000952000065860184600685B1198435B0121
:1023E0001860104670470020FCE70000FF01000065
:1023F0007047704710B50F4C0D4AA26223151A059D
:1024000001290BD0410503D5116919431161184306
:102410001169814311610020A06210BD410503D5FF
:10242000116999431161984311690143F2E7000072
:10243000837A000080000040074A064B936200291F
:10244000D16901D0014300E08143D1610020906255
:1024500070470000837A0000800000400449034A6E
:102460008A6248620020486288627047837A00006E
:102470008000004008B500210091814202D200BFD7
:10248000491CF9E708BD704710B5FEF795FC10BD73
:1024900010B50B48016A490710D5042101620948AB
:1024A0000178491C01704188491C41808188491C80
:1024B0008180C188491CC180FEF784FF10BD0000E7
:1024C000000501405001002010B51D48016A490770
:1024D00016D5042101621B480078022801D0052886
:1024E0000ED1194A117D104600238030002908D0F2
:1024F000012914D0022916D0032901D1FEF7BCFA14
:1025000010BD817E012907D051790129F8D11175BB
:1025100053759363837610BDFFF7D0FC10BD022185
:102520001175C36210BDC16A084A914205D2C16AE1
:10253000491CC162FEF7D6F810BDFEF743FA10BD84
:102540000006014015000020A00000201A410000F4
:1025500070B5054627480C46854203D1012120204D
:10256000FFF76AFF2448854203D101214020FFF78D
:1025700063FF20782179C007C9060843217A8906BC
:102580000843217B09060843218A09050843A18ADB
:1025900009040843E16909030843216AC9020843A1
:1025A000616A89020843A16A49020843E16A090293
:1025B0000843616B09010843A16BC9000843E16B43
:1025C00089000843216C49000843616C0843286076
:1025D000A0696860E06CA860A06CE860206B28616E
:1025E000206D6861606DA861A06DE86107202862B8
:1025F00070BD00000005014000060140002101609F
:1026000041608160C160016141610122C2618161FB
:1026100041628162C162016302624163C16301641C
:1026200041648164C164016541658263816570476D
:1026300070B5154C00252078022817D32570E08945
:1026400000F01EFA1149088000F05AF800F0D6F8A0
:10265000FFF7DEFBFEF736FCFFF7EAFDFFF70AFBAC
:102660000B480C490078800008588047608814287F
:1026700004D36580FFF700FDFEF704FBA088C8289F
:1026800000D3A58070BD000050010020A0000020F4
:10269000140000206C2C00007047000070B598B04A
:1026A0006846FFF7ABFF002401250B940194114805
:1026B0001594042600950995169606900A94694685
:1026C000079504940C48FFF743FF6846FFF796FF11
:1026D0001094FF20119421301594009502940690D7
:1026E0000D94694616960F9504940448FFF730FF41
:1026F00018B070BDC05D000000050140000601403B
:10270000F8B5374C208800270126C82806D2E77183
:10271000FEF788F827816771A7710EE02088FF21F6
:102720002D31884209D92089032804D22089401CF0
:102730002081667101E003202081A07901280BD05F
:1027400000210846FFF7F2FD00231A46962118469D
:102750000097FEF7C1FAF8BD206E224D642803D21F
:10276000206E401C20662FE020881F49FEF7D6FA15
:102770001D480096808A012380B21A469621FEF7F2
:10278000ABFA1A4906460860A7656F70A26D6978B2
:102790008B001B191B6CD018A065491CC8B268704F
:1027A0000628F3D3A16D1248FDF71EFDE065304603
:1027B0000121EE60FFF7BAFD0E492861884201DD74
:1027C000296103E0962801DA96202861298A0A48BF
:1027D0004A42028081800281818102828182F8BD29
:1027E000A000002018000020B0010020D00100202F
:1027F000404B4C00DC05000000070140F8B5454E99
:10280000B079454F02213B8F00250B431021795EA3
:10281000424C012808D0424A2046408891422DDA95
:1028200032281CD2401C36E03D4A3C48863A80881B
:1028300091420FDAFF21F531884201D2401C0CE0B1
:10284000B5713848057038480570A1803220608025
:10285000E1800FE0002829D0401EA08026E0B5715D
:102860003048057030480570FF20F530A0803221D7
:102870006180E0803B87FDF7D5FF17E02B4A91424E
:1028800014DD727924490223098F9943012A04D067
:10289000002808D0401E608008E0E088002802D0B0
:1028A000401EE08002E0E580658039871020385EB8
:1028B0001F4A0421904214DD20890A2801D2401CBD
:1028C00019E0B57117480570174805700A20208176
:1028D000FF20F5306081388F08433887FDF7A2FF6D
:1028E000F8BD144A9042FBDA7079012805D020899E
:1028F000002808D0401E2081F8BD6089002802D041
:10290000401E6081F8BD65812581388F88433887F6
:10291000F8BD0000A00000205001002000000020B1
:10292000450600001400002015000020730A000076
:10293000875100002A490000FEE730B47446641E47
:102940002578641CAB4200D21D46635D5B00E31832
:1029500030BC184706490A6904239A430A610549AD
:10296000C00808607D2280B2D200504348607047A2
:1029700000E000E05400002070B58726B600314624
:10298000FDF732FCC4B20D4604E0304600F020F8FA
:10299000641EE4B2002CF8D1002D02D0284600F0CD
:1029A00017F870BD08490968484308494861002381
:1029B0008B61012008610869C20701D0C003FAD504
:1029C0000B618B61704700005400002000E000E0C4
:1029D0000849496848430849486100238B61012040
:1029E00008610869C20701D0C003FAD50B618B6189
:1029F000704700005400002000E000E01A4C08B5C9
:102A00002046FFF737FD2046FFF734FDFEF784FC34
:102A1000FEF7FCFDFEF7D8FD00F042F8FFF778F96D
:102A20001248C16849084900C16010484030C16877
:102A300008221143C1600E489622E124E4005500AB
:102A400000900C4B21462846FEF7A6FD0A4A00924C
:102A50000A4BC82221462846FEF79EFDFEF704F9E0
:102A6000FFF7E6FDFCE70000204E000000080140F3
:102A7000B0010020DC050000E801002050C3000088
:102A80000005000D010500D50020044A1188CB0087
:102A9000591A08184003000C1080704700000020ED
:102AA00010B505488189C829FCD304498160FEF727
:102AB000A3F9FEF78FFA10BD50010020602C000032
:102AC00070B53348334D007828710024AC712C6107
:102AD000294620394C707D20C00048602C756C75EB
:102AE000AC61E86128622C4A6A62AA620B464033F4
:102AF0001C732C636C63AC63EC632C6628646864A1
:102B0000A864E86428656865AA65EC656866A866D7
:102B1000E86628676867A867E8670846A030046029
:102B200044608460C46004610475C4820483847654
:102B3000C476047744778477C4770C7704628C6119
:102B40004C610A220A6144628462C46230301349D3
:102B500084750978C17544838483046244620146A4
:102B6000203184620C73C48544870D480476447612
:102B700044610C48046044600B4804764476446128
:102B80000A4804604460FEF71FFD6C8070BD0000C1
:102B900018000020A0000020701700003500002061
:102BA000B0010020D0010020E80100200802002030
:102BB00070B5420064414B005C41120E39D01B0ECF
:102BC00038D0FF2A3CD0FF2B3AD040024902400ABD
:102BD000490A060045184E43000A090AD21848431C
:102BE000ED017F3A0104731A4019190C4318990F2B
:102BF00004D001215B0849075B1A521CD80904D391
:102C0000401CF50301D19D0607D0FF2A08D2D50547
:102C100006D0E4072043401970BD0125A843F4E71E
:102C2000002A01DCE00770BD2402FF202043C0051C
:102C300070BD1B0EFF2A03D0FF2B01D0E00770BD33
:102C4000FF2645003606B54206D84D00B54203D8EA
:102C5000D218FF2A00D0E7E7004870BD0000C07F0F
:102C60000102000000000000000000002117000029
:102C700059170000111800006D170000BD17000063
:102C8000DD170000C91700008117000005180000BB
:102C9000F11700008D170000818283848586878864
:102CA000898B8C8D8E8F919293959697999A9C9DF6
:102CB0009FA0A2A3A5A7A8AAACAEB0B2B3B5B7B95E
:102CC000BCBEC0C2C5C7C9CCCED1D4D7D9DCDFE227
:102CD000E6E9ECF0F3F7FAFEF82C00000000002023
:102CE0008000000004010000782D0000800000201A
:102CF0009804000020010000000000000000000017
:102D000000000000000000000000000001000000C2
:102D1000000014000000000000000000000000009F
:102D20000000000000000000000000000005040694
:102D3000020301010203040500050001020304006F
:102D4000010001000101000100010000000000007D
:102D50000000000000000000000000000000000073
:102D6000000000000000000000000000150000004E
:082D7000A2000000A300000016
:04000005000000C136
:00000001FF
